{
  "_format": "hh-sol-artifact-1",
  "contractName": "OnchainCV",
  "sourceName": "contracts/OnchainCV.sol",
  "abi": [
    {
      "inputs": [],
      "stateMutability": "nonpayable",
      "type": "constructor"
    },
    {
      "anonymous": false,
      "inputs": [
        {
          "indexed": false,
          "internalType": "uint256",
          "name": "caseId",
          "type": "uint256"
        },
        {
          "indexed": false,
          "internalType": "address",
          "name": "user",
          "type": "address"
        }
      ],
      "name": "LikeSet",
      "type": "event"
    },
    {
      "anonymous": false,
      "inputs": [
        {
          "indexed": true,
          "internalType": "address",
          "name": "previousOwner",
          "type": "address"
        },
        {
          "indexed": true,
          "internalType": "address",
          "name": "newOwner",
          "type": "address"
        }
      ],
      "name": "OwnershipTransferred",
      "type": "event"
    },
    {
      "inputs": [
        {
          "internalType": "string",
          "name": "info",
          "type": "string"
        },
        {
          "internalType": "uint256",
          "name": "startDate",
          "type": "uint256"
        },
        {
          "internalType": "uint256",
          "name": "endDate",
          "type": "uint256"
        }
      ],
      "name": "addCase",
      "outputs": [],
      "stateMutability": "nonpayable",
      "type": "function"
    },
    {
      "inputs": [
        {
          "internalType": "uint256",
          "name": "caseId",
          "type": "uint256"
        }
      ],
      "name": "getCase",
      "outputs": [
        {
          "components": [
            {
              "internalType": "uint256",
              "name": "id",
              "type": "uint256"
            },
            {
              "internalType": "string",
              "name": "info",
              "type": "string"
            },
            {
              "internalType": "uint256",
              "name": "startDate",
              "type": "uint256"
            },
            {
              "internalType": "uint256",
              "name": "endDate",
              "type": "uint256"
            },
            {
              "internalType": "uint256",
              "name": "likes",
              "type": "uint256"
            }
          ],
          "internalType": "struct OnchainCV.Case",
          "name": "",
          "type": "tuple"
        }
      ],
      "stateMutability": "view",
      "type": "function"
    },
    {
      "inputs": [],
      "name": "getCases",
      "outputs": [
        {
          "components": [
            {
              "internalType": "uint256",
              "name": "id",
              "type": "uint256"
            },
            {
              "internalType": "string",
              "name": "info",
              "type": "string"
            },
            {
              "internalType": "uint256",
              "name": "startDate",
              "type": "uint256"
            },
            {
              "internalType": "uint256",
              "name": "endDate",
              "type": "uint256"
            },
            {
              "internalType": "uint256",
              "name": "likes",
              "type": "uint256"
            }
          ],
          "internalType": "struct OnchainCV.Case[]",
          "name": "",
          "type": "tuple[]"
        }
      ],
      "stateMutability": "view",
      "type": "function"
    },
    {
      "inputs": [],
      "name": "getMainInfo",
      "outputs": [
        {
          "internalType": "string",
          "name": "",
          "type": "string"
        }
      ],
      "stateMutability": "view",
      "type": "function"
    },
    {
      "inputs": [],
      "name": "getTotalCases",
      "outputs": [
        {
          "internalType": "uint256",
          "name": "",
          "type": "uint256"
        }
      ],
      "stateMutability": "view",
      "type": "function"
    },
    {
      "inputs": [],
      "name": "getTotalLikes",
      "outputs": [
        {
          "internalType": "uint256",
          "name": "",
          "type": "uint256"
        }
      ],
      "stateMutability": "view",
      "type": "function"
    },
    {
      "inputs": [],
      "name": "owner",
      "outputs": [
        {
          "internalType": "address",
          "name": "",
          "type": "address"
        }
      ],
      "stateMutability": "view",
      "type": "function"
    },
    {
      "inputs": [
        {
          "internalType": "uint256",
          "name": "caseId",
          "type": "uint256"
        }
      ],
      "name": "removeCase",
      "outputs": [],
      "stateMutability": "nonpayable",
      "type": "function"
    },
    {
      "inputs": [],
      "name": "renounceOwnership",
      "outputs": [],
      "stateMutability": "nonpayable",
      "type": "function"
    },
    {
      "inputs": [
        {
          "internalType": "uint256",
          "name": "caseId",
          "type": "uint256"
        }
      ],
      "name": "setLike",
      "outputs": [],
      "stateMutability": "nonpayable",
      "type": "function"
    },
    {
      "inputs": [
        {
          "internalType": "address",
          "name": "newOwner",
          "type": "address"
        }
      ],
      "name": "transferOwnership",
      "outputs": [],
      "stateMutability": "nonpayable",
      "type": "function"
    },
    {
      "inputs": [
        {
          "internalType": "uint256",
          "name": "caseId",
          "type": "uint256"
        },
        {
          "internalType": "string",
          "name": "info",
          "type": "string"
        },
        {
          "internalType": "uint256",
          "name": "startDate",
          "type": "uint256"
        },
        {
          "internalType": "uint256",
          "name": "endDate",
          "type": "uint256"
        }
      ],
      "name": "updateCase",
      "outputs": [],
      "stateMutability": "nonpayable",
      "type": "function"
    },
    {
      "inputs": [
        {
          "internalType": "string",
          "name": "info",
          "type": "string"
        }
      ],
      "name": "updateMainInfo",
      "outputs": [],
      "stateMutability": "nonpayable",
      "type": "function"
    }
  ],
  "bytecode": "0x60806040523480156200001157600080fd5b5062000032620000266200005260201b60201c565b6200005a60201b60201c565b60016000815480929190620000479062000157565b9190505550620001a4565b600033905090565b60008060009054906101000a900473ffffffffffffffffffffffffffffffffffffffff169050816000806101000a81548173ffffffffffffffffffffffffffffffffffffffff021916908373ffffffffffffffffffffffffffffffffffffffff1602179055508173ffffffffffffffffffffffffffffffffffffffff168173ffffffffffffffffffffffffffffffffffffffff167f8be0079c531659141344cd1fd0a4f28419497f9722a3daafe3b4186f6b6457e060405160405180910390a35050565b7f4e487b7100000000000000000000000000000000000000000000000000000000600052601160045260246000fd5b6000819050919050565b600062000164826200014d565b91507fffffffffffffffffffffffffffffffffffffffffffffffffffffffffffffffff82036200019957620001986200011e565b5b600182019050919050565b611b5c80620001b46000396000f3fe608060405234801561001057600080fd5b50600436106100cf5760003560e01c80637cb1f5ce1161008c578063a91a108011610066578063a91a1080146101c8578063de7e8b3a146101f8578063f187b98314610214578063f2fde38b14610230576100cf565b80637cb1f5ce146101705780638da5cb5b1461018e578063a7d97b98146101ac576100cf565b8063065cb594146100d4578063104b7918146100f257806317c092121461011057806361f7b0591461012c578063715018a6146101485780637a69b32d14610152575b600080fd5b6100dc61024c565b6040516100e99190610f86565b60405180910390f35b6100fa6103f9565b6040516101079190610fb7565b60405180910390f35b61012a6004803603810190610125919061111b565b610403565b005b61014660048036038101906101419190611190565b61041e565b005b610150610599565b005b61015a6105ad565b6040516101679190610fb7565b60405180910390f35b6101786105b7565b6040516101859190611207565b60405180910390f35b610196610649565b6040516101a3919061126a565b60405180910390f35b6101c660048036038101906101c19190611285565b610672565b005b6101e260048036038101906101dd9190611190565b6107a2565b6040516101ef919061137e565b60405180910390f35b610212600480360381019061020d91906113a0565b6108d1565b005b61022e60048036038101906102299190611190565b6109d1565b005b61024a6004803603810190610245919061143b565b610ab2565b005b6060600060025467ffffffffffffffff81111561026c5761026b610ff0565b5b6040519080825280602002602001820160405280156102a557816020015b610292610d19565b81526020019060019003908161028a5790505b509050600080600190505b6001548110156103f05760006005600083815260200190815260200160002060020154146103dd57600560008281526020019081526020016000206040518060a00160405290816000820154815260200160018201805461031090611497565b80601f016020809104026020016040519081016040528092919081815260200182805461033c90611497565b80156103895780601f1061035e57610100808354040283529160200191610389565b820191906000526020600020905b81548152906001019060200180831161036c57829003601f168201915b5050505050815260200160028201548152602001600382015481526020016004820154815250508383815181106103c3576103c26114c8565b5b602002602001018190525081806103d990611526565b9250505b80806103e890611526565b9150506102b0565b50819250505090565b6000600354905090565b61040b610b35565b806004908161041a919061171a565b5050565b61042781610bb3565b610466576040517f08c379a000000000000000000000000000000000000000000000000000000000815260040161045d9061185e565b60405180910390fd5b6104708133610be5565b156104b0576040517f08c379a00000000000000000000000000000000000000000000000000000000081526004016104a7906118f0565b60405180910390fd5b6005600082815260200190815260200160002060040160008154809291906104d790611526565b9190505550600360008154809291906104ef90611526565b91905055506001600660003373ffffffffffffffffffffffffffffffffffffffff1673ffffffffffffffffffffffffffffffffffffffff168152602001908152602001600020600083815260200190815260200160002060006101000a81548160ff0219169083151502179055507fe4171bc27a3835a5cb6a81c1d2cd46811faceed022861d525985c73158ff543b813360405161058e929190611910565b60405180910390a150565b6105a1610b35565b6105ab6000610c4d565b565b6000600254905090565b6060600480546105c690611497565b80601f01602080910402602001604051908101604052809291908181526020018280546105f290611497565b801561063f5780601f106106145761010080835404028352916020019161063f565b820191906000526020600020905b81548152906001019060200180831161062257829003601f168201915b5050505050905090565b60008060009054906101000a900473ffffffffffffffffffffffffffffffffffffffff16905090565b61067a610b35565b61068384610bb3565b6106c2576040517f08c379a00000000000000000000000000000000000000000000000000000000081526004016106b99061185e565b60405180910390fd5b60008203610705576040517f08c379a00000000000000000000000000000000000000000000000000000000081526004016106fc906119ab565b60405180910390fd5b6000600560008681526020019081526020016000206004015490506040518060a001604052808681526020018581526020018481526020018381526020018281525060056000878152602001908152602001600020600082015181600001556020820151816001019081610779919061171a565b506040820151816002015560608201518160030155608082015181600401559050505050505050565b6107aa610d19565b6107b382610bb3565b6107f2576040517f08c379a00000000000000000000000000000000000000000000000000000000081526004016107e99061185e565b60405180910390fd5b600560008381526020019081526020016000206040518060a00160405290816000820154815260200160018201805461082a90611497565b80601f016020809104026020016040519081016040528092919081815260200182805461085690611497565b80156108a35780601f10610878576101008083540402835291602001916108a3565b820191906000526020600020905b81548152906001019060200180831161088657829003601f168201915b5050505050815260200160028201548152602001600382015481526020016004820154815250509050919050565b6108d9610b35565b6000820361091c576040517f08c379a0000000000000000000000000000000000000000000000000000000008152600401610913906119ab565b60405180910390fd5b6040518060a001604052806001548152602001848152602001838152602001828152602001600081525060056000600154815260200190815260200160002060008201518160000155602082015181600101908161097a919061171a565b50604082015181600201556060820151816003015560808201518160040155905050600160008154809291906109af90611526565b9190505550600260008154809291906109c790611526565b9190505550505050565b6109d9610b35565b6109e281610bb3565b610a21576040517f08c379a0000000000000000000000000000000000000000000000000000000008152600401610a189061185e565b60405180910390fd5b60006005600083815260200190815260200160002060040154905060056000838152602001908152602001600020600080820160009055600182016000610a689190610d48565b600282016000905560038201600090556004820160009055505080600354610a9091906119cb565b60038190555060026000815480929190610aa9906119ff565b91905055505050565b610aba610b35565b600073ffffffffffffffffffffffffffffffffffffffff168173ffffffffffffffffffffffffffffffffffffffff1603610b29576040517f08c379a0000000000000000000000000000000000000000000000000000000008152600401610b2090611a9a565b60405180910390fd5b610b3281610c4d565b50565b610b3d610d11565b73ffffffffffffffffffffffffffffffffffffffff16610b5b610649565b73ffffffffffffffffffffffffffffffffffffffff1614610bb1576040517f08c379a0000000000000000000000000000000000000000000000000000000008152600401610ba890611b06565b60405180910390fd5b565b600080600560008481526020019081526020016000206002015403610bdb5760009050610be0565b600190505b919050565b6000600660008373ffffffffffffffffffffffffffffffffffffffff1673ffffffffffffffffffffffffffffffffffffffff168152602001908152602001600020600084815260200190815260200160002060009054906101000a900460ff16905092915050565b60008060009054906101000a900473ffffffffffffffffffffffffffffffffffffffff169050816000806101000a81548173ffffffffffffffffffffffffffffffffffffffff021916908373ffffffffffffffffffffffffffffffffffffffff1602179055508173ffffffffffffffffffffffffffffffffffffffff168173ffffffffffffffffffffffffffffffffffffffff167f8be0079c531659141344cd1fd0a4f28419497f9722a3daafe3b4186f6b6457e060405160405180910390a35050565b600033905090565b6040518060a0016040528060008152602001606081526020016000815260200160008152602001600081525090565b508054610d5490611497565b6000825580601f10610d665750610d85565b601f016020900490600052602060002090810190610d849190610d88565b5b50565b5b80821115610da1576000816000905550600101610d89565b5090565b600081519050919050565b600082825260208201905092915050565b6000819050602082019050919050565b6000819050919050565b610de481610dd1565b82525050565b600081519050919050565b600082825260208201905092915050565b60005b83811015610e24578082015181840152602081019050610e09565b60008484015250505050565b6000601f19601f8301169050919050565b6000610e4c82610dea565b610e568185610df5565b9350610e66818560208601610e06565b610e6f81610e30565b840191505092915050565b600060a083016000830151610e926000860182610ddb565b5060208301518482036020860152610eaa8282610e41565b9150506040830151610ebf6040860182610ddb565b506060830151610ed26060860182610ddb565b506080830151610ee56080860182610ddb565b508091505092915050565b6000610efc8383610e7a565b905092915050565b6000602082019050919050565b6000610f1c82610da5565b610f268185610db0565b935083602082028501610f3885610dc1565b8060005b85811015610f745784840389528151610f558582610ef0565b9450610f6083610f04565b925060208a01995050600181019050610f3c565b50829750879550505050505092915050565b60006020820190508181036000830152610fa08184610f11565b905092915050565b610fb181610dd1565b82525050565b6000602082019050610fcc6000830184610fa8565b92915050565b6000604051905090565b600080fd5b600080fd5b600080fd5b600080fd5b7f4e487b7100000000000000000000000000000000000000000000000000000000600052604160045260246000fd5b61102882610e30565b810181811067ffffffffffffffff8211171561104757611046610ff0565b5b80604052505050565b600061105a610fd2565b9050611066828261101f565b919050565b600067ffffffffffffffff82111561108657611085610ff0565b5b61108f82610e30565b9050602081019050919050565b82818337600083830152505050565b60006110be6110b98461106b565b611050565b9050828152602081018484840111156110da576110d9610feb565b5b6110e584828561109c565b509392505050565b600082601f83011261110257611101610fe6565b5b81356111128482602086016110ab565b91505092915050565b60006020828403121561113157611130610fdc565b5b600082013567ffffffffffffffff81111561114f5761114e610fe1565b5b61115b848285016110ed565b91505092915050565b61116d81610dd1565b811461117857600080fd5b50565b60008135905061118a81611164565b92915050565b6000602082840312156111a6576111a5610fdc565b5b60006111b48482850161117b565b91505092915050565b600082825260208201905092915050565b60006111d982610dea565b6111e381856111bd565b93506111f3818560208601610e06565b6111fc81610e30565b840191505092915050565b6000602082019050818103600083015261122181846111ce565b905092915050565b600073ffffffffffffffffffffffffffffffffffffffff82169050919050565b600061125482611229565b9050919050565b61126481611249565b82525050565b600060208201905061127f600083018461125b565b92915050565b6000806000806080858703121561129f5761129e610fdc565b5b60006112ad8782880161117b565b945050602085013567ffffffffffffffff8111156112ce576112cd610fe1565b5b6112da878288016110ed565b93505060406112eb8782880161117b565b92505060606112fc8782880161117b565b91505092959194509250565b600060a0830160008301516113206000860182610ddb565b50602083015184820360208601526113388282610e41565b915050604083015161134d6040860182610ddb565b5060608301516113606060860182610ddb565b5060808301516113736080860182610ddb565b508091505092915050565b600060208201905081810360008301526113988184611308565b905092915050565b6000806000606084860312156113b9576113b8610fdc565b5b600084013567ffffffffffffffff8111156113d7576113d6610fe1565b5b6113e3868287016110ed565b93505060206113f48682870161117b565b92505060406114058682870161117b565b9150509250925092565b61141881611249565b811461142357600080fd5b50565b6000813590506114358161140f565b92915050565b60006020828403121561145157611450610fdc565b5b600061145f84828501611426565b91505092915050565b7f4e487b7100000000000000000000000000000000000000000000000000000000600052602260045260246000fd5b600060028204905060018216806114af57607f821691505b6020821081036114c2576114c1611468565b5b50919050565b7f4e487b7100000000000000000000000000000000000000000000000000000000600052603260045260246000fd5b7f4e487b7100000000000000000000000000000000000000000000000000000000600052601160045260246000fd5b600061153182610dd1565b91507fffffffffffffffffffffffffffffffffffffffffffffffffffffffffffffffff8203611563576115626114f7565b5b600182019050919050565b60008190508160005260206000209050919050565b60006020601f8301049050919050565b600082821b905092915050565b6000600883026115d07fffffffffffffffffffffffffffffffffffffffffffffffffffffffffffffffff82611593565b6115da8683611593565b95508019841693508086168417925050509392505050565b6000819050919050565b600061161761161261160d84610dd1565b6115f2565b610dd1565b9050919050565b6000819050919050565b611631836115fc565b61164561163d8261161e565b8484546115a0565b825550505050565b600090565b61165a61164d565b611665818484611628565b505050565b5b818110156116895761167e600082611652565b60018101905061166b565b5050565b601f8211156116ce5761169f8161156e565b6116a884611583565b810160208510156116b7578190505b6116cb6116c385611583565b83018261166a565b50505b505050565b600082821c905092915050565b60006116f1600019846008026116d3565b1980831691505092915050565b600061170a83836116e0565b9150826002028217905092915050565b61172382610dea565b67ffffffffffffffff81111561173c5761173b610ff0565b5b6117468254611497565b61175182828561168d565b600060209050601f8311600181146117845760008415611772578287015190505b61177c85826116fe565b8655506117e4565b601f1984166117928661156e565b60005b828110156117ba57848901518255600182019150602085019450602081019050611795565b868310156117d757848901516117d3601f8916826116e0565b8355505b6001600288020188555050505b505050505050565b7f4f6e636861696e43563a20636173652064656c65746564206f7220696e76616c60008201527f6964204944000000000000000000000000000000000000000000000000000000602082015250565b60006118486025836111bd565b9150611853826117ec565b604082019050919050565b600060208201905081810360008301526118778161183b565b9050919050565b7f4f6e636861696e43563a20796f7520616c726561647920736574206c696b652060008201527f6f6e207468697320636173650000000000000000000000000000000000000000602082015250565b60006118da602c836111bd565b91506118e58261187e565b604082019050919050565b60006020820190508181036000830152611909816118cd565b9050919050565b60006040820190506119256000830185610fa8565b611932602083018461125b565b9392505050565b7f4f6e636861696e43563a20737461727420646174652063616e206e6f7420626560008201527f2030000000000000000000000000000000000000000000000000000000000000602082015250565b60006119956022836111bd565b91506119a082611939565b604082019050919050565b600060208201905081810360008301526119c481611988565b9050919050565b60006119d682610dd1565b91506119e183610dd1565b92508282039050818111156119f9576119f86114f7565b5b92915050565b6000611a0a82610dd1565b915060008203611a1d57611a1c6114f7565b5b600182039050919050565b7f4f776e61626c653a206e6577206f776e657220697320746865207a65726f206160008201527f6464726573730000000000000000000000000000000000000000000000000000602082015250565b6000611a846026836111bd565b9150611a8f82611a28565b604082019050919050565b60006020820190508181036000830152611ab381611a77565b9050919050565b7f4f776e61626c653a2063616c6c6572206973206e6f7420746865206f776e6572600082015250565b6000611af06020836111bd565b9150611afb82611aba565b602082019050919050565b60006020820190508181036000830152611b1f81611ae3565b905091905056fea2646970667358221220c773bacebe5c357596484c212b397f4fce348bab2a211f7919aa36b4877d2e6164736f6c63430008110033",
  "linkReferences": {},
  "deployedLinkReferences": {}
}